{
  "_format": "hh-sol-artifact-1",
  "contractName": "Upload",
  "sourceName": "contracts/Upload.sol",
  "abi": [
    {
      "inputs": [
        {
          "internalType": "address",
          "name": "_user",
          "type": "address"
        },
        {
          "internalType": "string",
          "name": "url",
          "type": "string"
        }
      ],
      "name": "add",
      "outputs": [],
      "stateMutability": "nonpayable",
      "type": "function"
    },
    {
      "inputs": [
        {
          "internalType": "address",
          "name": "user",
          "type": "address"
        }
      ],
      "name": "allow",
      "outputs": [],
      "stateMutability": "nonpayable",
      "type": "function"
    },
    {
      "inputs": [
        {
          "internalType": "address",
          "name": "user",
          "type": "address"
        }
      ],
      "name": "disallow",
      "outputs": [],
      "stateMutability": "nonpayable",
      "type": "function"
    },
    {
      "inputs": [
        {
          "internalType": "address",
          "name": "_user",
          "type": "address"
        }
      ],
      "name": "display",
      "outputs": [
        {
          "internalType": "string[]",
          "name": "",
          "type": "string[]"
        }
      ],
      "stateMutability": "view",
      "type": "function"
    },
    {
      "inputs": [],
      "name": "shareAccess",
      "outputs": [
        {
          "components": [
            {
              "internalType": "address",
              "name": "user",
              "type": "address"
            },
            {
              "internalType": "bool",
              "name": "access",
              "type": "bool"
            }
          ],
          "internalType": "struct Upload.Access[]",
          "name": "",
          "type": "tuple[]"
        }
      ],
      "stateMutability": "view",
      "type": "function"
    }
  ],
  "bytecode": "0x608060405234801561001057600080fd5b50611633806100206000396000f3fe608060405234801561001057600080fd5b50600436106100575760003560e01c806336d6da551461005c578063a9ed9cb814610078578063bc8bef8114610094578063eb39113f146100b2578063ff9913e8146100e2575b600080fd5b61007660048036038101906100719190610e79565b6100fe565b005b610092600480360381019061008d9190610ed5565b610173565b005b61009c61055c565b6040516100a9919061100a565b60405180910390f35b6100cc60048036038101906100c79190610ed5565b610665565b6040516100d9919061116d565b60405180910390f35b6100fc60048036038101906100f79190610ed5565b61087b565b005b6000808373ffffffffffffffffffffffffffffffffffffffff1673ffffffffffffffffffffffffffffffffffffffff1681526020019081526020016000208190806001815401808255809150506001900390600052602060002001600090919091909150908161016e91906113a5565b505050565b6000600160003373ffffffffffffffffffffffffffffffffffffffff1673ffffffffffffffffffffffffffffffffffffffff16815260200190815260200160002060008373ffffffffffffffffffffffffffffffffffffffff1673ffffffffffffffffffffffffffffffffffffffff16815260200190815260200160002060006101000a81548160ff02191690831515021790555060005b600260003373ffffffffffffffffffffffffffffffffffffffff1673ffffffffffffffffffffffffffffffffffffffff16815260200190815260200160002080549050811015610558578173ffffffffffffffffffffffffffffffffffffffff16600260003373ffffffffffffffffffffffffffffffffffffffff1673ffffffffffffffffffffffffffffffffffffffff16815260200190815260200160002082815481106102bd576102bc611477565b5b9060005260206000200160000160009054906101000a900473ffffffffffffffffffffffffffffffffffffffff1673ffffffffffffffffffffffffffffffffffffffff160361054557600260003373ffffffffffffffffffffffffffffffffffffffff1673ffffffffffffffffffffffffffffffffffffffff1681526020019081526020016000206001600260003373ffffffffffffffffffffffffffffffffffffffff1673ffffffffffffffffffffffffffffffffffffffff1681526020019081526020016000208054905061039491906114d5565b815481106103a5576103a4611477565b5b90600052602060002001600260003373ffffffffffffffffffffffffffffffffffffffff1673ffffffffffffffffffffffffffffffffffffffff1681526020019081526020016000208281548110610400576103ff611477565b5b906000526020600020016000820160009054906101000a900473ffffffffffffffffffffffffffffffffffffffff168160000160006101000a81548173ffffffffffffffffffffffffffffffffffffffff021916908373ffffffffffffffffffffffffffffffffffffffff1602179055506000820160149054906101000a900460ff168160000160146101000a81548160ff021916908315150217905550905050600260003373ffffffffffffffffffffffffffffffffffffffff1673ffffffffffffffffffffffffffffffffffffffff1681526020019081526020016000208054806104f0576104ef611509565b5b60019003818190600052602060002001600080820160006101000a81549073ffffffffffffffffffffffffffffffffffffffff02191690556000820160146101000a81549060ff021916905550509055610558565b808061055090611538565b91505061020b565b5050565b6060600260003373ffffffffffffffffffffffffffffffffffffffff1673ffffffffffffffffffffffffffffffffffffffff168152602001908152602001600020805480602002602001604051908101604052809291908181526020016000905b8282101561065c578382906000526020600020016040518060400160405290816000820160009054906101000a900473ffffffffffffffffffffffffffffffffffffffff1673ffffffffffffffffffffffffffffffffffffffff1673ffffffffffffffffffffffffffffffffffffffff1681526020016000820160149054906101000a900460ff161515151581525050815260200190600101906105bd565b50505050905090565b60603373ffffffffffffffffffffffffffffffffffffffff168273ffffffffffffffffffffffffffffffffffffffff1614806107275750600160008373ffffffffffffffffffffffffffffffffffffffff1673ffffffffffffffffffffffffffffffffffffffff16815260200190815260200160002060003373ffffffffffffffffffffffffffffffffffffffff1673ffffffffffffffffffffffffffffffffffffffff16815260200190815260200160002060009054906101000a900460ff165b610766576040517f08c379a000000000000000000000000000000000000000000000000000000000815260040161075d906115dd565b60405180910390fd5b6000808373ffffffffffffffffffffffffffffffffffffffff1673ffffffffffffffffffffffffffffffffffffffff168152602001908152602001600020805480602002602001604051908101604052809291908181526020016000905b828210156108705783829060005260206000200180546107e3906111be565b80601f016020809104026020016040519081016040528092919081815260200182805461080f906111be565b801561085c5780601f106108315761010080835404028352916020019161085c565b820191906000526020600020905b81548152906001019060200180831161083f57829003601f168201915b5050505050815260200190600101906107c4565b505050509050919050565b60018060003373ffffffffffffffffffffffffffffffffffffffff1673ffffffffffffffffffffffffffffffffffffffff16815260200190815260200160002060008373ffffffffffffffffffffffffffffffffffffffff1673ffffffffffffffffffffffffffffffffffffffff16815260200190815260200160002060006101000a81548160ff021916908315150217905550600360003373ffffffffffffffffffffffffffffffffffffffff1673ffffffffffffffffffffffffffffffffffffffff16815260200190815260200160002060008273ffffffffffffffffffffffffffffffffffffffff1673ffffffffffffffffffffffffffffffffffffffff16815260200190815260200160002060009054906101000a900460ff1615610b2d5760005b600260003373ffffffffffffffffffffffffffffffffffffffff1673ffffffffffffffffffffffffffffffffffffffff16815260200190815260200160002080549050811015610b27578173ffffffffffffffffffffffffffffffffffffffff16600260003373ffffffffffffffffffffffffffffffffffffffff1673ffffffffffffffffffffffffffffffffffffffff1681526020019081526020016000208281548110610a5357610a52611477565b5b9060005260206000200160000160009054906101000a900473ffffffffffffffffffffffffffffffffffffffff1673ffffffffffffffffffffffffffffffffffffffff1603610b14576001600260003373ffffffffffffffffffffffffffffffffffffffff1673ffffffffffffffffffffffffffffffffffffffff1681526020019081526020016000208281548110610aef57610aee611477565b5b9060005260206000200160000160146101000a81548160ff0219169083151502179055505b8080610b1f90611538565b9150506109a1565b50610cbe565b600260003373ffffffffffffffffffffffffffffffffffffffff1673ffffffffffffffffffffffffffffffffffffffff16815260200190815260200160002060405180604001604052808373ffffffffffffffffffffffffffffffffffffffff168152602001600115158152509080600181540180825580915050600190039060005260206000200160009091909190915060008201518160000160006101000a81548173ffffffffffffffffffffffffffffffffffffffff021916908373ffffffffffffffffffffffffffffffffffffffff16021790555060208201518160000160146101000a81548160ff02191690831515021790555050506001600360003373ffffffffffffffffffffffffffffffffffffffff1673ffffffffffffffffffffffffffffffffffffffff16815260200190815260200160002060008373ffffffffffffffffffffffffffffffffffffffff1673ffffffffffffffffffffffffffffffffffffffff16815260200190815260200160002060006101000a81548160ff0219169083151502179055505b50565b6000604051905090565b600080fd5b600080fd5b600073ffffffffffffffffffffffffffffffffffffffff82169050919050565b6000610d0082610cd5565b9050919050565b610d1081610cf5565b8114610d1b57600080fd5b50565b600081359050610d2d81610d07565b92915050565b600080fd5b600080fd5b6000601f19601f8301169050919050565b7f4e487b7100000000000000000000000000000000000000000000000000000000600052604160045260246000fd5b610d8682610d3d565b810181811067ffffffffffffffff82111715610da557610da4610d4e565b5b80604052505050565b6000610db8610cc1565b9050610dc48282610d7d565b919050565b600067ffffffffffffffff821115610de457610de3610d4e565b5b610ded82610d3d565b9050602081019050919050565b82818337600083830152505050565b6000610e1c610e1784610dc9565b610dae565b905082815260208101848484011115610e3857610e37610d38565b5b610e43848285610dfa565b509392505050565b600082601f830112610e6057610e5f610d33565b5b8135610e70848260208601610e09565b91505092915050565b60008060408385031215610e9057610e8f610ccb565b5b6000610e9e85828601610d1e565b925050602083013567ffffffffffffffff811115610ebf57610ebe610cd0565b5b610ecb85828601610e4b565b9150509250929050565b600060208284031215610eeb57610eea610ccb565b5b6000610ef984828501610d1e565b91505092915050565b600081519050919050565b600082825260208201905092915050565b6000819050602082019050919050565b610f3781610cf5565b82525050565b60008115159050919050565b610f5281610f3d565b82525050565b604082016000820151610f6e6000850182610f2e565b506020820151610f816020850182610f49565b50505050565b6000610f938383610f58565b60408301905092915050565b6000602082019050919050565b6000610fb782610f02565b610fc18185610f0d565b9350610fcc83610f1e565b8060005b83811015610ffd578151610fe48882610f87565b9750610fef83610f9f565b925050600181019050610fd0565b5085935050505092915050565b600060208201905081810360008301526110248184610fac565b905092915050565b600081519050919050565b600082825260208201905092915050565b6000819050602082019050919050565b600081519050919050565b600082825260208201905092915050565b60005b83811015611092578082015181840152602081019050611077565b60008484015250505050565b60006110a982611058565b6110b38185611063565b93506110c3818560208601611074565b6110cc81610d3d565b840191505092915050565b60006110e3838361109e565b905092915050565b6000602082019050919050565b60006111038261102c565b61110d8185611037565b93508360208202850161111f85611048565b8060005b8581101561115b578484038952815161113c85826110d7565b9450611147836110eb565b925060208a01995050600181019050611123565b50829750879550505050505092915050565b6000602082019050818103600083015261118781846110f8565b905092915050565b7f4e487b7100000000000000000000000000000000000000000000000000000000600052602260045260246000fd5b600060028204905060018216806111d657607f821691505b6020821081036111e9576111e861118f565b5b50919050565b60008190508160005260206000209050919050565b60006020601f8301049050919050565b600082821b905092915050565b6000600883026112517fffffffffffffffffffffffffffffffffffffffffffffffffffffffffffffffff82611214565b61125b8683611214565b95508019841693508086168417925050509392505050565b6000819050919050565b6000819050919050565b60006112a261129d61129884611273565b61127d565b611273565b9050919050565b6000819050919050565b6112bc83611287565b6112d06112c8826112a9565b848454611221565b825550505050565b600090565b6112e56112d8565b6112f08184846112b3565b505050565b5b81811015611314576113096000826112dd565b6001810190506112f6565b5050565b601f8211156113595761132a816111ef565b61133384611204565b81016020851015611342578190505b61135661134e85611204565b8301826112f5565b50505b505050565b600082821c905092915050565b600061137c6000198460080261135e565b1980831691505092915050565b6000611395838361136b565b9150826002028217905092915050565b6113ae82611058565b67ffffffffffffffff8111156113c7576113c6610d4e565b5b6113d182546111be565b6113dc828285611318565b600060209050601f83116001811461140f57600084156113fd578287015190505b6114078582611389565b86555061146f565b601f19841661141d866111ef565b60005b8281101561144557848901518255600182019150602085019450602081019050611420565b86831015611462578489015161145e601f89168261136b565b8355505b6001600288020188555050505b505050505050565b7f4e487b7100000000000000000000000000000000000000000000000000000000600052603260045260246000fd5b7f4e487b7100000000000000000000000000000000000000000000000000000000600052601160045260246000fd5b60006114e082611273565b91506114eb83611273565b9250828203905081811115611503576115026114a6565b5b92915050565b7f4e487b7100000000000000000000000000000000000000000000000000000000600052603160045260246000fd5b600061154382611273565b91507fffffffffffffffffffffffffffffffffffffffffffffffffffffffffffffffff8203611575576115746114a6565b5b600182019050919050565b600082825260208201905092915050565b7f596f7520646f6e27742068617665206163636573730000000000000000000000600082015250565b60006115c7601583611580565b91506115d282611591565b602082019050919050565b600060208201905081810360008301526115f6816115ba565b905091905056fea2646970667358221220f6bb46ba35666a4698667df21ee3fbe213cb761f8fbf8951fd83eb876e6efc3564736f6c63430008110033",
  "linkReferences": {},
  "deployedLinkReferences": {}
}